:020000040800F2
:1000000000500020C50B0008B10B0008B10B000820
:10001000B10B0008B10B0008B10B00080000000094
:10002000000000000000000000000000B10B00080C
:10003000B10B000800000000B10B0008E50C00083F
:10004000B10B0008B10B0008B10B0008B10B0008A0
:10005000B10B0008B10B0008B10B0008B10B000890
:10006000B10B0008B10B0008B10B0008B10B000880
:10007000B10B0008B10B0008B10B0008B10B000870
:10008000B10B0008B10B0008B10B0008B10B000860
:10009000B10B0008B10B0008B10B0008B10B000850
:1000A000B10B0008B10B0008B10B0008B10B000840
:1000B000B10B0008B10B0008B10B0008B10B000830
:1000C000B10B0008B10B0008B10B0008B10B000820
:1000D000B10B0008B10B0008B10B0008B10B000810
:1000E000B10B0008B10B0008B10B0008B10B000800
:1000F000B10B0008B10B0008B10B0008B10B0008F0
:10010000B10B0008B10B0008B10B0008B10B0008DF
:10011000B10B0008B10B0008B10B0008B10B0008CF
:10012000B10B0008B10B0008B10B0008B10B0008BF
:1001300000400FE10F0014E31C00000A0D30A0E1A5
:10014000D110A0E301F021E103D0A0E101AA4DE22A
:100150000A30A0E1D710A0E301F021E103D0A0E133
:10016000013A43E2DB10A0E301F021E103D0A0E17A
:10017000013A43E2D210A0E301F021E103D0A0E173
:10018000023A43E2D310A0E301F021E103D0A0E161
:10019000023943E2FF30C3E3FF3CC3E3DF10A0E3D7
:1001A00001F021E103D0A0E1C04084E304F021E1AB
:1001B00001A843E21EFF2FE188309FE5000053E3D2
:1001C00074309F0503D0A0E1D8FFFFEB0010B0E32F
:1001D00001B0A0E10170A0E16C009FE56C209FE5FB
:1001E000002052E0390300EB50309FE5000053E35C
:1001F0000100000A0FE0A0E103F0A0E140309FE51C
:10020000000053E30100000A0FE0A0E103F0A0E1C9
:100210000000B0E30010B0E30040B0E10150B0E1F5
:100220002C009FE5E10200EB060300EB0400B0E1C7
:100230000510B0E1C30200FAE40200EB0000080080
:100240000000000000000000000000004C0400203E
:100250008C040020040E000880B400AF00BFBD462F
:1002600080BC704780B485B000AF0023FB600023E2
:10027000BB6000237B602F4B5B6803F00C03FB60CB
:10028000FB68082B11D0FB68082B3AD8FB68002BC1
:1002900003D0FB68042B04D033E0274B274A1A60B5
:1002A00033E0254B254A1A602FE0224B5B6803F4AC
:1002B0007013BB601F4B5B6803F480337B60BB68CB
:1002C0009B0C0233BB607B68002B06D1BB681C4AC9
:1002D00002FB03F3184A136017E0164B5B6803F444
:1002E0000033002B06D0BB68154A02FB03F3124A09
:1002F00013600AE0BB68114A02FB03F30E4A136065
:1003000003E00D4B0D4A1A6000BF0A4B5B681B09E6
:1003100003F00F030B4AD35CFB60074B1A68FB68C2
:1003200022FA03F3044A136000BF1437BD4680BCB1
:10033000704700BF001002400000002000127A0049
:1003400000093D009812000880B400AF064B1B68FE
:100350005B0E03F00103002B14BF01230023DBB26B
:100360001846BD4680BC70470010024080B400AF04
:10037000044B1B68034A43F08073136000BFBD4603
:1003800080BC70470010024080B400AF044B1B6873
:10039000034A23F08073136000BFBD4680BC7047E2
:1003A0000010024080B400AF044B1B68034A43F4C2
:1003B0000023136000BFBD4680BC704700100240A0
:1003C00080B400AF044B1B68034A23F4002313607E
:1003D00000BFBD4680BC70470010024080B400AF33
:1003E000044B1B68034A43F48023136000BFBD46DF
:1003F00080BC70470010024080B400AF044B1B6803
:10040000034A23F48023136000BFBD4680BC7047BD
:100410000010024080B400AF064B1B6803F40033A9
:10042000002B14BF01230023DBB21846BD4680BC5D
:10043000704700BF0010024080B400AF044B1B683F
:10044000034A43F48033136000BFBD4680BC70474D
:100450000010024080B400AF044B1B68034A23F431
:100460008033136000BFBD4680BC7047001002405F
:1004700080B400AF064B1B6803F00203002B14BFCF
:1004800001230023DBB21846BD4680BC704700BF85
:100490000010024080B400AF044B1B68034A43F0D5
:1004A0000103136000BFBD4680BC704700100240CE
:1004B00080B400AF044B1B68034A23F001031360B0
:1004C00000BFBD4680BC70470010024080B485B0BC
:1004D00000AF0346FB71FB790433FB60084B5B689C
:1004E000074A23F0E0635360054B5A68FB681B061C
:1004F000034913434B6000BF1437BD4680BC7047AF
:100500000010024080B483B000AF0346FB71094B7A
:100510005B68084A23F480035360064B5A68FB79F2
:100520009B05044913434B6000BF0C37BD4680BC9C
:10053000704700BF0010024080B483B000AF786005
:100540007B68023B7B60094B5B68084A23F47013AD
:100550005360064B5A687B689B04044913434B6005
:1005600000BF0C37BD4680BC704700BF0010024082
:1005700080B483B000AF0346FB71094B5B68084A47
:1005800023F400335360064B5A68FB795B0404493B
:1005900013434B6000BF0C37BD4680BC704700BFA3
:1005A0000010024080B483B000AF0346FB71094BDA
:1005B0005B68084A23F480335360064B5A68FB7922
:1005C0001B04044913434B6000BF0C37BD4680BC7D
:1005D000704700BF0010024080B485B000AF0346F2
:1005E000FB71FB79002B02D0FB79033300E0002381
:1005F000FB60094B5B68084A23F460535360064B69
:100600005A68FB68DB02044913434B6000BF143790
:10061000BD4680BC704700BF0010024080B485B06A
:1006200000AF0346FB71FB79002B02D0FB7903334B
:1006300000E00023FB60094B5B68084A23F4E06399
:100640005360064B5A68FB681B02044913434B6016
:1006500000BF1437BD4680BC704700BF0010024089
:1006600080B485B000AF0346FB71FB79002B02D04C
:10067000FB79073300E00023FB60094B5B68084A05
:1006800023F0F0035360064B5A68FB681B010449D2
:1006900013434B6000BF1437BD4680BC704700BF9A
:1006A0000010024080B483B000AF0346FB71094BD9
:1006B0005B68084A23F440435360064B5A68FB7951
:1006C0009B03044913434B6000BF0C37BD4680BCFD
:1006D000704700BF0010024080B483B000AF0346F3
:1006E000FB71084B5B68074A23F003035360054B1B
:1006F0005A68FB79034913434B6000BF0C37BD4672
:1007000080BC70470010024080B400AF054B5B68AE
:100710009B08DBB203F00303DBB21846BD4680BC86
:10072000704700BF0010024080B582B000AF786013
:10073000FFF7B0FE00BFFFF79BFE034683F0010307
:10074000DBB2002BF7D10020FFF7C6FF7B681B78D8
:10075000012B0AD1FFF770FE00BFFFF75BFE0346D7
:1007600083F00103DBB2002BF7D17B685B7918467D
:10077000FFF776FF7B689B791846FFF74FFF7B6892
:10078000DB791846FFF728FF7B68DB78022B1CD14A
:10079000FFF7FAFD00BFFFF7D7FD0346002BFAD1A4
:1007A0007B681B781846FFF7FDFE7B689B78184630
:1007B000FFF7C2FEFFF7DAFD00BFFFF7C5FD0346F6
:1007C00083F00103DBB2002BF7D17B681B7918465D
:1007D00000F09EF97B68DB781846FFF77DFF00BFCD
:1007E000FFF792FF03461A467B68DB789A42F7D1FF
:1007F0007B681B78012B01D1FFF75AFEFFF732FD12
:1008000000BF0837BD4680BD80B483B000AF7860BC
:100810007B681D4A934206D11C4B9B691B4A43F0DF
:10082000040393612AE07B68194A934206D1174B6F
:100830009B69164A43F0080393611FE07B68154AE1
:10084000934206D1114B9B69104A43F01003936108
:1008500014E07B68104A934206D10C4B9B690B4A0B
:1008600043F02003936109E07B680C4A934205D171
:10087000064B9B69054A43F04003936100BF0C3768
:10088000BD4680BC704700BF000801400010024018
:10089000000C01400010014000140140001801400C
:1008A00080B586B000AF78607B681B681A467B68AD
:1008B0001B79DB08DBB29B0013443B617B681B792F
:1008C0009B00DBB203F01C03FB7300237B617B689E
:1008D0001B681846FFF798FF3B691A68FB7B0F21DE
:1008E00001FA03F3DB431A403B691A607B685B79CA
:1008F000002B1CD17B681B7A002B04D17B6943F051
:1009000004037B613DE07B6943F008037B617B6806
:100910001B7A012B01D1012201E04FF480327B6868
:100920001B7919467B681B688A401A6129E07B683D
:100930009B7A002B04D17B6943F002037B6110E0BA
:100940007B689B7A012B04D17B6943F001037B61B7
:1009500007E07B689B7A022B03D17B6943F003039A
:100960007B617B68DB79012B03D17B6943F0040356
:100970007B617B689B79012B03D17B6943F0080382
:100980007B613B691A68FB7B796901FA03F31A43BF
:100990003B691A6000BF1837BD4680BD80B483B084
:1009A00000AF78607B685B7A002B0DD17B681B6899
:1009B0001A697B681B79194601238B4019467B68AD
:1009C0001B680A431A610CE07B681B685A697B68E4
:1009D0001B79194601238B4019467B681B680A4323
:1009E0005A6100BF0C37BD4680BC704780B483B0ED
:1009F00000AF78607B685B7A002B0DD17B681B6849
:100A00005A697B681B79194601238B4019467B681C
:100A10001B680A435A610CE07B681B681A697B6893
:100A20001B79194601238B4019467B681B680A43D2
:100A30001A6100BF0C37BD4680BC704780B483B0DC
:100A400000AF78607B685B7A002B0ED17B681B68F7
:100A50009B687A681279114601228A401340002B64
:100A600014BF01230023DBB20DE07B681B689B6889
:100A70007A681279114601228A401340002B0CBF7C
:100A800001230023DBB218460C37BD4680BC7047FB
:100A900080B483B000AF78607B681B68DA687B68DD
:100AA0001B79194601238B4019467B681B684A4015
:100AB000DA6000BF0C37BD4680BC704780B485B09B
:100AC00000AF78600023FB607B681B68002B18D0A8
:100AD0004FF08443FB607B681B68103303F1404395
:100AE0005A01FB681344FB607B681B799A00FB6822
:100AF0001344FB607B685B7A002B02D1FB684033B8
:100B0000FB60FB6818461437BD4680BC704700BFC9
:100B100080B483B000AF7860084B1B68074A23F0AD
:100B200007031360054B1A6804497B6813430B6085
:100B300000BF0C37BD4680BC704700BF002002409C
:100B400080B400AF044B1B68034A43F010031360EA
:100B500000BFBD4680BC70470020024080B400AF9B
:100B6000044B1B68034A23F01003136000BFBD460B
:100B700080BC70470020024080B400AF044B1B686B
:100B8000034A43F00803136000BFBD4680BC7047B2
:100B90000020024080B400AF044B1B68034A23F0DE
:100BA0000803136000BFBD4680BC704700200240B0
:100BB00080B400AF00BFFDE780B483B000AF7860C1
:100BC00000BFFDE780B588B000AF1B4A1B4BD31AAE
:100BD0007B611B4B3B61194BFB600023FB610AE00F
:100BE0003A69FB691A44F968FB690B4412781A7078
:100BF000FB690133FB61FA697B699A42F0D3114AC0
:100C0000114BD31ABB60104B7B600023BB6107E024
:100C10007A68BB69134400221A70BB690133BB6157
:100C2000BA69BB689A42F3D3FFF71CFB00F08CF85B
:100C300000BF2037BD4680BD4804002000000020D2
:100C4000701300088C0400204C04002080B483B092
:100C500000AF03463960FB7197F90730002B0ADBC0
:100C60003B68DAB20C4997F907301201D2B20B4453
:100C700083F800230AE03B68DAB20849FB7903F005
:100C80000F03043B1201D2B20B441A7600BF0C379B
:100C9000BD4680BC704700BF00E100E000ED00E011
:100CA00080B582B000AF78607B68013BB3F1807F94
:100CB00001D301230FE00A4A7B68013B53600F21F7
:100CC0004FF0FF30FFF7C2FF054B00229A60044B44
:100CD00007221A60002318460837BD4680BD00BFB2
:100CE00010E000E080B400AF044B1B680133034AFE
:100CF000136000BFBD4680BC704700BF4C0400209D
:100D000080B485B000AF78600E4B1B68FB60FA685A
:100D10007B681344BB60BA68FB689A4205D200BF87
:100D2000084B1B68FA689A42FAD300BF054B1B6850
:100D3000BA689A42FAD800BF00BF1437BD4680BCDB
:100D4000704700BF4C04002080B584B000AF144849
:100D5000FFF7EAFC134B1B68134AA2FB03239B0912
:100D60001846FFF79DFF62B600BF3B1D00221A60C8
:100D70005A60C3F807200D4B7B600D233B720123A3
:100D80007B723B1D1846FFF78BFD3B1D1846FFF796
:100D90007FFE4FF47A70FFF7B3FF00BFF5E700BFA7
:100DA000DC12000800000020D34D6210001001404A
:100DB0000030A0E310402DE90010A0E10320A0E1E5
:100DC0000300A0E1880000EB1040BDE81EFF2FE10A
:100DD00010402DE90010A0E30040A0E1B00000EBBE
:100DE00018309FE5000093E53C3090E5000053E3A8
:100DF0000FE0A01113FF2F110400A0E16DFFFFFA17
:100E0000E812000870402DE930509FE530409FE522
:100E1000044045E04441B0E10500000A043035E5F6
:100E2000014044E20FE0A0E113FF2FE1000054E392
:100E3000F9FFFF1A440100EB7040BDE81EFF2FE1EF
:100E4000000000000000000070402DE96C609FE58C
:100E50006C509FE5056046E04661B0E10700000A7E
:100E60000040A0E3045045E20430B5E5014084E2CF
:100E70000FE0A0E113FF2FE1040056E1F9FFFF1A94
:100E800040609FE540509FE5056046E0280100EB8B
:100E90004661B0E10700000A0040A0E3045045E2CB
:100EA0000430B5E5014084E20FE0A0E113FF2FE13B
:100EB000040056E1F9FFFF1A7040BDE81EFF2FE164
:100EC0000000000000000000000000000000000022
:100ED000030010E34000000A000052E3012042E258
:100EE0001EFF2F010030A0E1FFC001E2020000EA76
:100EF000012042E2010072E31EFF2F0101C0C3E4A2
:100F0000030013E3F9FFFF1A030052E32800009ADD
:100F100030402DE9FFE001E20EE48EE10F0052E3E4
:100F20000EE88EE12E00009A10C042E20F40CCE3A2
:100F3000205083E2045085E02C42A0E110C083E2FF
:100F400010E00CE50CE00CE508E00CE504E00CE535
:100F500010C08CE205005CE1F8FFFF1A01C084E2DA
:100F60000C0012E30CC283E00F2002E21800000A1A
:100F7000043042E20330C3E3043083E203308CE008
:100F800004E08CE40C0053E1FCFFFF1A032002E2B2
:100F9000000052E30400000AFF1001E2022083E097
:100FA0000110C3E4030052E1FCFFFF1A3040BDE82A
:100FB0001EFF2FE1000052E31EFF2F01FF1001E290
:100FC000022083E00110C3E4030052E1FCFFFF1A9A
:100FD0001EFF2FE10C30A0E1ECFFFFEA0030A0E1A2
:100FE000C8FFFFEA03C0A0E1E0FFFFEAF0412DE9FE
:100FF000A4809FE50040A0E1000098E50360A0E127
:101000000150A0E10270A0E1750000EB8C309FE57B
:10101000003093E548C193E500005CE353CF8302C1
:1010200004E09CE548C183051F005EE3000098E5ED
:10103000160000CA000054E30700001A01308EE2D7
:1010400002E08EE204308CE50E518CE76A0000EB82
:101050000000A0E3F041BDE81EFF2FE10130A0E356
:101060000E118CE0887081E588219CE5133EA0E19B
:10107000032082E188218CE5086181E5020054E3C8
:101080008C219C05033082018C318C05EAFFFFEA3C
:10109000590000EB0000E0E3EDFFFFEA3804002018
:1010A000E8120008F04F2DE900B0A0E114319FE5EF
:1010B0000CD04DE2000093E50170A0E104B08DE595
:1010C000470000EB00319FE5008093E5486198E51B
:1010D000000056E33500000A0190A0E300A0A0E361
:1010E000044096E5015054E23000004A014084E299
:1010F000044186E0030000EA015045E2010075E387
:10110000044044E22900000A000057E30200000AFC
:10111000003194E5070053E1F6FFFF1A043096E52D
:10112000002094E5013043E2050053E104508605B8
:1011300000A08415000052E3EEFFFF0A883196E517
:101140001915A0E1030011E104B096E50B00001AA7
:101150000FE0A0E112FF2FE1041096E50B0051E132
:10116000482198E50100001A060052E1E1FFFF0A5C
:10117000000052E30D00000A0260A0E1D7FFFFEA81
:101180008C0196E5000011E1801094E50300001A3F
:1011900004009DE50FE0A0E112FF2FE1EDFFFFEA63
:1011A0000100A0E10FE0A0E112FF2FE1E9FFFFEA5B
:1011B00010309FE5000093E50F0000EB0CD08DE2AE
:1011C000F04FBDE81EFF2FE138040020E8120008B0
:1011D0001EFF2FE11EFF2FE11EFF2FE11EFF2FE15B
:1011E0001EFF2FE11EFF2FE10100A0E31EFF2FE1F4
:1011F0000100A0E31EFF2FE11EFF2FE11EFF2FE1E4
:1012000010402DE928409FE50030D4E5000053E36D
:101210000500001A1C309FE5000053E318009F15DD
:1012200000F020130130A0E30030C4E51040BDE819
:101230001EFF2FE17104002000000000641300086D
:101240001C309FE5000053E31EFF2F0110402DE9E5
:1012500010109FE510009FE500F020E31040BDE86E
:101260001EFF2FE10000000074040020641300083A
:1012700018309FE5000053E31EFF2F0110402DE9B9
:101280000C009FE5C9FEFFEB1040BDE81EFF2FE1FB
:1012900000000000040E0008000000000000000034
:1012A000010203040607080900000000010203040C
:1012B00012010002020000408304405700020102B4
:1012C00003010000070583031000FF00070501026A
:1012D00040000107058202400001000001000702F2
:1012E0000200000000020000100000203D400B4002
:1012F0001040264035400340064014400E400D404B
:101300002540124028400240184009400A40000091
:101310003D400B40104026403540034006401440FD
:101320000E400D4025401240284002401840094020
:101330000A4000000DC0A0E1F8DF2DE904B04CE246
:1013400028D04BE2F06F9DE81EFF2FE10DC0A0E119
:10135000F8DF2DE904B04CE228D04BE2F06F9DE8B5
:101360001EFF2FE100000000C8EDFF7F010000001C
:101370000024F40000000000100000200000000025
:1013800000000000FC02002064030020CC030020C9
:10139000000000000000000000000000000000004D
:1013A000000000000000000000000000000000003D
:1013B000000000000000000000000000000000002D
:1013C000000000000000000000000000000000001D
:1013D000000000000000000000000000000000000D
:1013E00000000000000000000000000000000000FD
:1013F00000000000000000000000000000000000ED
:1014000000000000000000000000000000000000DC
:1014100000000000000000000000000000000000CC
:1014200000000000000000000100000000000000BB
:101430000E33CDAB34126DE6ECDE05000B00000080
:10144000000000000000000000000000000000009C
:10145000000000000000000000000000000000008C
:10146000000000000000000000000000000000007C
:10147000000000000000000000000000000000006C
:1017A00000000000000000006804002000000000AD
:0817B0004012000800120008BD
:0417B80070120008A3
:0400000508000BC51F
:00000001FF
